S01500004368616C6C616E676531355F522E7372656379
S11300000C942A000C943C000C943C000C943C008E
S11300100C943C000C943C000C943C000C943C006C
S11300200C943C000C943C000C9419010C943C007E
S11300300C943C000C943C000C943C000C943C004C
S11300400C943C000C943C000C943C000C943C003C
S11300500C943C0011241FBECFE5D8E0DEBFCDBF19
S113006020E0A0E6B0E001C01D92AF36B207E1F790
S11300700E94F1000C9440020C940000883028F592
S1130080613081F49AB321E030E0082E02C0220FDF
S1130090331F0A94E2F7292B2ABB98EF980F983064
S11300A0D0F03EC061118CC09AB321E030E0082E3C
S11300B002C0220F331F0A94E2F7209529232ABB9A
S11300C098EF980F9830D0F081C098EF980F98303F
S11300D038F5613089F447B321E030E098EF980FA8
S11300E002C0220F331F9A95E2F7242B27BB90EF0F
S11300F0980F9830D8F03FC0611112C097B321E037
S113010030E048EF480F02C0220F331F4A95E2F750
S11301102095292327BB90EF980F9830D0F05CC02E
S113012090EF980F983038F5613089F444B321E0AA
S113013030E090EF980F02C0220F331F9A95E2F738
S1130140242B24BB97EE980F9730D8F008956111B3
S113015012C094B321E030E040EF480F02C0220FF8
S1130160331F4A95E2F72095292324BB97EE980F75
S11301709730B8F0089597EE980F973088F561306E
S113018071F441B3885121E030E0B90102C0660F37
S1130190771F8A95E2F7CB01842B81BB0895611107
S11301A01FC041B3885121E030E0B90102C0660F9D
S11301B0771F8A95E2F7CB018095842381BB08954C
S11301C098EF980F983008F497CFAACF90EF980F34
S11301D0983008F4BCCFCFCF97EE980F9730F8F251
S11301E0089560E088E10E943E0061E089E10E9498
S11301F03E00E6E6F0E080E895E2A0E0B0E080832F
S11302009183A283B38381E08483158288E086830B
S1130210178210860E94580181E40E941A022FEF6F
S113022089E698E1215080409040E1F700C0000049
S1130230F3CF1F920F920FB60F9211242F933F9377
S11302404F935F936F937F938F939F93AF93BF93DA
S1130250EF93FF93809160009091610001969093D9
S1130260610080936000209164003091650080916A
S11302706000909161002817390749F4E091620009
S1130280F091630009951092610010926000FF9153
S1130290EF91BF91AF919F918F917F916F915F91FA
S11302A04F913F912F910F900FBE0F901F90189573
S11302B00F931F93CF93DF931F92CDB7DEB71982AD
S11302C080B58F7780BD06E610E0F80180819181CA
S11302D0A281B381880F991FAA1FBB1F880F991F82
S11302E0AA1FBB1F9C01AD01220F331F441F551FC2
S11302F0220F331F441F551F60E074E284EF90E027
S11303000E941E02BA01A9014150510961097109F3
S1130310BB27A72F962F852F80BD49B98981806877
S11303208983F8018085882319F0813039F00BC066
S113033089818E7F8983898180BD05C0898181609F
S11303408983898180BD80916C00863091F018F496
S1130350853031F028C08730A9F08830E1F023C01F
S113036089818D7F898389818B7F8983898180BD00
S11303701AC089818260898389818B7F898389817D
S113038080BD11C089818D7F89838981846089833F
S1130390898180BD08C08981826089838981846064
S11303A08983898180BD80916A00882319F0813016
S11303B039F00BC08981877F8983898180BD05C01D
S11303C0898188608983898180BD80916B008130B7
S11303D069F018F0823099F01AC089818F7E898380
S11303E089818F7D8983898180BD11C089818F7EB8
S11303F08983898180628983898180BD08C08981DC
S113040080618983898180628983898180BD8091AB
S11304106D00882319F0813019F003C0599801C088
S1130420599A539A549A579A0F90DF91CF911F91EA
S11304300F9108955D9BFECF8CB90895A1E21A2E09
S1130440AA1BBB1BFD010DC0AA1FBB1FEE1FFF1F74
S1130450A217B307E407F50720F0A21BB30BE40BC4
S1130460F50B661F771F881F991F1A9469F760950B
S11304707095809590959B01AC01BD01CF010895C5
S1070480F894FFCF1A
S9030000FC
