:100000000C942A000C943C000C943C000C943C0092
:100010000C943C000C943C000C943C000C943C0070
:100020000C943C000C943C000C9403010C943C0098
:100030000C943C000C943C000C943C000C943C0050
:100040000C943C000C943C000C943C000C943C0040
:100050000C943C0011241FBECFE5D8E0DEBFCDBF1D
:1000600020E0A0E6B0E001C01D92A636B207E1F79D
:100070000E94F1000C9455010C940000883028F582
:10008000613081F49AB321E030E0082E02C0220FE3
:10009000331F0A94E2F7292B2ABB98EF980F983068
:1000A000D0F03EC061118CC09AB321E030E0082E40
:1000B00002C0220F331F0A94E2F7209529232ABB9E
:1000C00098EF980F9830D0F081C098EF980F983043
:1000D00038F5613089F447B321E030E098EF980FAC
:1000E00002C0220F331F9A95E2F7242B27BB90EF13
:1000F000980F9830D8F03FC0611112C097B321E03B
:1001000030E048EF480F02C0220F331F4A95E2F754
:100110002095292327BB90EF980F9830D0F05CC032
:1001200090EF980F983038F5613089F444B321E0AE
:1001300030E090EF980F02C0220F331F9A95E2F73C
:10014000242B24BB97EE980F9730D8F008956111B7
:1001500012C094B321E030E040EF480F02C0220FFC
:10016000331F4A95E2F72095292324BB97EE980F79
:100170009730B8F0089597EE980F973088F5613072
:1001800071F441B3885121E030E0B90102C0660F3B
:10019000771F8A95E2F7CB01842B81BB089561110B
:1001A0001FC041B3885121E030E0B90102C0660FA1
:1001B000771F8A95E2F7CB018095842381BB089550
:1001C00098EF980F983008F497CFAACF90EF980F38
:1001D000983008F4BCCFCFCF97EE980F9730F8F255
:1001E000089560E088E10E943E0061E089E10E949C
:1001F0003E0060E875E280E090E00E94420181E408
:100200000E945101FCCF1F920F920FB60F92112442
:100210002F933F934F935F936F937F938F939F930E
:10022000AF93BF93EF93FF93809160009091610033
:10023000019690936100809360002091640030915A
:10024000650080916000909161002817390749F49A
:10025000E0916200F09163000995109261001092A4
:100260006000FF91EF91BF91AF919F918F917F912E
:100270006F915F914F913F912F910F900FBE0F9013
:100280001F9018950F931F93072F182F292F33278F
:1002900000BD69B988E18AB98EE880BD1F910F91D0
:0E02A0000895559BFECF8CB90895F894FFCFBA
:00000001FF
