:100000000C942A000C943C000C943C000C943C0092
:100010000C943C000C943C000C943C000C943C0070
:100020000C943C000C943C000C94F3020C943C00A7
:100030000C943C000C943C000C943C000C943C0050
:100040000C943C000C943C000C943C000C943C0040
:100050000C943C0011241FBECFE5D8E0DEBFCDBF1D
:1000600020E0A0E6B0E001C01D92AF36B207E1F794
:100070000E94B6020C9430040C940000883028F5DD
:10008000613081F49BB321E030E0082E02C0220FE2
:10009000331F0A94E2F7292B2BBB98EF980F983067
:1000A000D0F03EC061118CC09BB321E030E0082E3F
:1000B00002C0220F331F0A94E2F7209529232BBB9D
:1000C00098EF980F9830D0F081C098EF980F983043
:1000D00038F5613089F448B321E030E098EF980FAB
:1000E00002C0220F331F9A95E2F7242B28BB90EF12
:1000F000980F9830D8F03FC0611112C098B321E03A
:1001000030E048EF480F02C0220F331F4A95E2F754
:100110002095292328BB90EF980F9830D0F05CC031
:1001200090EF980F983038F5613089F445B321E0AD
:1001300030E090EF980F02C0220F331F9A95E2F73C
:10014000242B25BB97EE980F9730D8F008956111B6
:1001500012C095B321E030E040EF480F02C0220FFB
:10016000331F4A95E2F72095292325BB97EE980F78
:100170009730B8F0089597EE980F973088F5613072
:1001800071F442B3885121E030E0B90102C0660F3A
:10019000771F8A95E2F7CB01842B82BB089561110A
:1001A0001FC042B3885121E030E0B90102C0660FA0
:1001B000771F8A95E2F7CB018095842382BB08954F
:1001C00098EF980F983008F497CFAACF90EF980F38
:1001D000983008F4BCCFCFCF97EE980F9730F8F255
:1001E0000895883028F5613081F49AB321E030E039
:1001F000082E02C0220F331F0A94E2F7292B2ABBD4
:1002000098EF980F9830D0F03EC061118CC09AB32F
:1002100021E030E0082E02C0220F331F0A94E2F7DB
:10022000209529232ABB98EF980F9830D0F081C0F1
:1002300098EF980F983038F5613089F447B321E092
:1002400030E098EF980F02C0220F331F9A95E2F723
:10025000242B27BB90EF980F9830D8F03FC0611146
:1002600012C097B321E030E048EF480F02C0220FE0
:10027000331F4A95E2F72095292327BB90EF980F6B
:100280009830D0F05CC090EF980F983038F561301E
:1002900089F444B321E030E090EF980F02C0220FC0
:1002A000331F9A95E2F7242B24BB97EE980F9730D3
:1002B000D8F00895611112C094B321E030E040EF0E
:1002C000480F02C0220F331F4A95E2F720952923D9
:1002D00024BB97EE980F9730B8F0089597EE980FDB
:1002E000973088F5613071F441B3885121E030E0F6
:1002F000B90102C0660F771F8A95E2F7CB01842B04
:1003000081BB089561111FC041B3885121E030E0E5
:10031000B90102C0660F771F8A95E2F7CB0180957D
:10032000842381BB089598EF980F983008F497CFF5
:10033000AACF90EF980F983008F4BCCFCFCF97EEAC
:10034000980F9730F8F20895883098F449B321E077
:1003500030E0082E02C0220F331F0A94E2F750E06B
:1003600024233523082E02C0359527950A94E2F7F9
:1003700001C020E098EF980F9830A8F446B3682F9A
:1003800070E06850710921E030E0062E02C0220FB3
:10039000331F0A94E2F750E02423352302C0359539
:1003A00027956A95E2F790EF980F9830A8F443B339
:1003B000682F70E06051710921E030E0062E02C024
:1003C000220F331F0A94E2F750E02423352302C0A2
:1003D000359527956A95E2F797EE980F9730B0F428
:1003E00020B3482F50E04851510981E090E0042E9D
:1003F00002C0880F991F0A94E2F730E0822393230A
:1004000002C0959587954A95E2F7282F822F089587
:10041000CF93C82F0E94A401811105C061E08C2FE9
:100420000E943E0004C060E08C2F0E943E00CF91ED
:10043000089560E085E10E94F10060E086E10E949D
:10044000F10060E087E10E94F10061E085E10E9437
:100450003E0061E086E10E943E0061E087E10E948B
:100460003E0061E082E10E94F10061E083E10E94D0
:10047000F10061E084E10E94F1000895CF9360E013
:1004800082E10E943E0061E083E10E943E0061E063
:1004900084E10E943E0085E10E94A401882361F06E
:1004A00086E10E94A401882349F087E10E94A4010B
:1004B000811106C0C3E005C0C1E003C0C2E001C0B5
:1004C000C0E061E082E10E943E0060E083E10E94C2
:1004D0003E0061E084E10E943E0085E10E94A401AB
:1004E000882361F086E10E94A401882349F087E116
:1004F0000E94A401811105C0C6E003C0C4E001C090
:10050000C5E061E082E10E943E0061E083E10E947B
:100510003E0060E084E10E943E0085E10E94A4016B
:10052000882361F086E10E94A401882349F087E1D5
:100530000E94A401811105C0C9E003C0C7E001C049
:10054000C8E08C2FCF91089561E08CE00E94F1000B
:10055000089561E08DE00E94F10008958CE00E9412
:10056000080208958DE00E940802089560E088E185
:100570000E94F10061E089E10E94F100E6E6F0E00E
:1005800080E895E2A0E0B0E080839183A283B3830A
:1005900081E08483158288E08683178210860E941A
:1005A00032030E9419020E94A4020E94A9020E9422
:1005B0003E02813029F481E40E940A040E94AE02C6
:1005C0000E943E02823029F482E40E940A040E94C2
:1005D000B2022FEF83EC99E0215080409040E1F788
:1005E00000C00000E4CF1F920F920FB60F921124AB
:1005F0002F933F934F935F936F937F938F939F932B
:10060000AF93BF93EF93FF9380916000909161004F
:100610000196909361008093600020916400309176
:10062000650080916000909161002817390749F4B6
:10063000E0916200F09163000995109261001092C0
:100640006000FF91EF91BF91AF919F918F917F914A
:100650006F915F914F913F912F910F900FBE0F902F
:100660001F9018950F931F93CF93DF931F92CDB7D1
:10067000DEB7198280B58F7780BD06E610E0F801FD
:1006800080819181A281B381880F991FAA1FBB1F0E
:10069000880F991FAA1FBB1F9C01AD01220F331F9A
:1006A000441F551F220F331F441F551F60E074E283
:1006B00084EF90E00E940E04BA01A9014150510953
:1006C00061097109BB27A72F962F852F80BD49B9D6
:1006D000898180688983F8018085882319F08130B9
:1006E00049F00FC089818E7F8983998180B5892BDC
:1006F00080BD07C0898181608983998180B5892BFC
:1007000080BD80916C008630A1F018F4853031F006
:1007100030C08730C9F0883011F12BC089818D7FBE
:10072000898389818B7F8983998180B5892B80BD5D
:1007300020C089818260898389818B7F89839981A7
:1007400080B5892B80BD15C089818D7F8983898182
:1007500084608983998180B5892B80BD0AC0898195
:1007600082608983898184608983998180B5892B9E
:1007700080BD80916A00882319F0813049F00FC054
:100780008981877F8983998180B5892B80BD07C046
:10079000898188608983998180B5892B80BD80910A
:1007A0006B00813079F018F08230B9F020C0898177
:1007B0008F7E898389818F7D8983998180B5892BFB
:1007C00080BD15C089818F7E8983898180628983FC
:1007D000998180B5892B80BD0AC089818061898318
:1007E000898180628983998180B5892B80BD8091C0
:1007F0006D00882319F0813019F003C0599801C0A9
:10080000599A539A549A579A0F90DF91CF911F910A
:100810000F9108955D9BFECF8CB90895A1E21A2E29
:10082000AA1BBB1BFD010DC0AA1FBB1FEE1FFF1F94
:10083000A217B307E407F50720F0A21BB30BE40BE4
:10084000F50B661F771F881F991F1A9469F760952B
:100850007095809590959B01AC01BD01CF010895E5
:04086000F894FFCF3A
:00000001FF
