S01500004368616C6C616E676531355F522E7372656379
S11300000C942A000C943C000C943C000C943C008E
S11300100C943C000C943C000C943C000C943C006C
S11300200C943C000C943C000C943F000C943C0059
S11300300C943C000C943C000C943C000C943C004C
S11300400C943C000C943C000C943C000C943C003C
S11300500C943C0011241FBECFE5D8E0DEBFCDBF19
S113006020E0A0E6B0E001C01D92A636B207E1F799
S11300700E943E000C947E000C940000FFCF1F925F
S11300800F920FB60F9211242F933F934F935F93C8
S11300906F937F938F939F93AF93BF93EF93FF934C
S11300A0809160009091610001969093610080932B
S11300B0600020916400309165008091600090910F
S11300C061002817390749F4E0916200F091630058
S11300D009951092610010926000FF91EF91BF9119
S11300E0AF919F918F917F916F915F914F913F91CC
S11300F02F910F900FBE0F901F901895F894FFCF7B
S9030000FC
