:100000000C942A000C943C000C943C000C943C0092
:100010000C943C000C943C000C943C000C943C0070
:100020000C943C000C943C000C94CB030C943C00CE
:100030000C943C000C943C000C943C000C943C0050
:100040000C943C000C943C000C943C000C943C0040
:100050000C943C0011241FBECFE5D8E0DEBFCDBF1D
:1000600020E0A0E6B0E001C01D92A53DB207E1F797
:100070000E942D020C940A040C9400008AE00E9455
:10008000A8010895883028F5613081F49BB321E000
:1000900030E0082E02C0220F331F0A94E2F7292B0A
:1000A0002BBB98EF980F9830D0F03EC061118CC0F8
:1000B0009BB321E030E0082E02C0220F331F0A94C8
:1000C000E2F7209529232BBB98EF980F9830D0F0BA
:1000D00081C098EF980F983038F5613089F448B3B3
:1000E00021E030E098EF980F02C0220F331F9A955D
:1000F000E2F7242B28BB90EF980F9830D8F03FC040
:10010000611112C098B321E030E048EF480F02C0FF
:10011000220F331F4A95E2F72095292328BB90EF41
:10012000980F9830D0F05CC090EF980F983038F569
:10013000613089F445B321E030E090EF980F02C0C0
:10014000220F331F9A95E2F7242B25BB97EE980FC9
:100150009730D8F00895611112C095B321E030E0D6
:1001600040EF480F02C0220F331F4A95E2F7209557
:10017000292325BB97EE980F9730B8F0089597EE96
:10018000980F973088F5613071F442B3885121E0BF
:1001900030E0B90102C0660F771F8A95E2F7CB0104
:1001A000842B82BB089561111FC042B3885121E0A6
:1001B00030E0B90102C0660F771F8A95E2F7CB01E4
:1001C0008095842382BB089598EF980F983008F4A7
:1001D00097CFAACF90EF980F983008F4BCCFCFCF2D
:1001E00097EE980F9730F8F20895883028F561302F
:1001F00081F49AB321E030E0082E02C0220F331FB1
:100200000A94E2F7292B2ABB98EF980F9830D0F088
:100210003EC061118CC09AB321E030E0082E02C0CC
:10022000220F331F0A94E2F7209529232ABB98EF67
:10023000980F9830D0F081C098EF980F983038F52B
:10024000613089F447B321E030E098EF980F02C0A5
:10025000220F331F9A95E2F7242B27BB90EF980FBC
:100260009830D8F03FC0611112C097B321E030E060
:1002700048EF480F02C0220F331F4A95E2F720953E
:10028000292327BB90EF980F9830D0F05CC090EFF7
:10029000980F983038F5613089F444B321E030E0AC
:1002A00090EF980F02C0220F331F9A95E2F7242B8C
:1002B00024BB97EE980F9730D8F00895611112C0C3
:1002C00094B321E030E040EF480F02C0220F331F0B
:1002D0004A95E2F72095292324BB97EE980F973093
:1002E000B8F0089597EE980F973088F5613071F463
:1002F00041B3885121E030E0B90102C0660F771F99
:100300008A95E2F7CB01842B81BB089561111FC050
:1003100041B3885121E030E0B90102C0660F771F78
:100320008A95E2F7CB018095842381BB089598EFED
:10033000980F983008F497CFAACF90EF980F983085
:1003400008F4BCCFCFCF97EE980F9730F8F208950E
:10035000883098F449B321E030E0082E02C0220F23
:10036000331F0A94E2F750E024233523082E02C0FD
:10037000359527950A94E2F701C020E098EF980F91
:100380009830A8F446B3682F70E06850710921E0F6
:1003900030E0062E02C0220F331F0A94E2F750E02D
:1003A0002423352302C0359527956A95E2F790EF0F
:1003B000980F9830A8F443B3682F70E0605171092A
:1003C00021E030E0062E02C0220F331F0A94E2F72C
:1003D00050E02423352302C0359527956A95E2F72E
:1003E00097EE980F9730B0F420B3482F50E0485163
:1003F000510981E090E0042E02C0880F991F0A94F1
:10040000E2F730E08223932302C0959587954A95C1
:10041000E2F7282F822F0895CF93C82F0E94A801BA
:10042000811105C061E08C2F0E94420004C060E091
:100430008C2F0E944200CF9108958CE00E940C0204
:1004400008958DE00E940C0208958EE00E940C0237
:1004500008958FE00E940C02089561E08CE00E94F4
:10046000F50061E08DE00E94F50061E08EE00E9401
:10047000F50061E08FE00E94F50060E08AE00E94F4
:10048000F5000E94820200E021E048EE53E060E0C7
:1004900070E081EA93E00E94930201E021E040EDE8
:1004A00057E060E070E084EA93E00E94930202E08B
:1004B00021E048EB5BE060E070E087EA93E00E94B7
:1004C000930203E021E040EA5FE060E070E08AEA46
:1004D00093E00E94930204E021E048E853E160E0E9
:1004E00070E08DEA93E00E94930281E090E00E9428
:1004F0009803FFCF80916200811103C081E0809357
:1005000062000895E5E6F0E081EA90E01182108251
:100510001782108611861286128213863C96E8177F
:10052000F907A1F708954F925F926F927F928F9291
:100530009F92AF92BF92FF920F931F93CF93DF933F
:100540002091610030E0F901EE0FFF1FE20FF31F71
:10055000EE0FFF1FEE0FFF1FEB59FF4F91838083BC
:100560008091610090E0FC01EE0FFF1FE80FF91F82
:10057000EE0FFF1FEE0FFF1FEB59FF4F42838091DD
:10058000610090E0FC01EE0FFF1FE80FF91FEE0F76
:10059000FF1FEE0FFF1FEB59FF4FDF011396438341
:1005A00011965C93119712966C93129713967C9305
:1005B0008091610090E0FC01EE0FFF1FE80FF91F32
:1005C000EE0FFF1FEE0FFF1FEB59FF4F03878091C8
:1005D00061008F5F80936100C5E025E930E03BC09A
:1005E00087819085A185B2854389548965897689FB
:1005F00084179507A607B70740F5F280838094809B
:10060000A580B68000811181D38547845088618898
:1006100072884382548265827682478350876187DD
:100620007287468542834485558551834083478937
:1006300043878786908AA18AB28A838B948BA58B05
:10064000B68BF68615870487D78B3C96E217F3079F
:1006500039F6C15019F0E5E6F0E0C2CF81E0DF9154
:10066000CF911F910F91FF90BF90AF909F908F906F
:100670007F906F905F904F900895E5E6F0E021EA5B
:1006800030E043E650E060E070E09385981304C0EA
:1006900047835087618772873C96E217F307A9F773
:1006A0000895EF92FF920F931F93CF93DF93809162
:1006B00062008130B1F5809160008F5F80936000AF
:1006C000C5E6D0E00F2EF1EAEF2EF0E0FF2EF02D80
:1006D0008B819C81AD81BE810197A109B1098B837A
:1006E0009C83AD83BE83892B8A2B8B2BA1F48F81B6
:1006F0009885A985BA8583369105A105B10559F07C
:10070000E881F98109958A8190E0A0E0B0E08B83CF
:100710009C83AD83BE832C96CE15DF05C9F610925F
:100720006200DF91CF911F910F91FF90EF9008959C
:100730000E94B5038AE792E00E94C6030E9451031B
:10074000FDCF0E941D0208950E94210208950E947B
:10075000250208950E94290208950E943E008130DA
:1007600019F483E00E943D0308959093D400809390
:10077000D3008FB780688FBF89B7826089BF12BEF0
:1007800089EF8CBF83B78B6083BF08959093D200AD
:100790008093D10008951F920F920FB60F921124EB
:1007A0002F933F934F935F936F937F938F939F9379
:1007B000AF93BF93EF93FF93809163009091640098
:1007C000019690936400809363002091D300309150
:1007D000D40080916300909164002817390749F490
:1007E000E091D100F091D20009951092640010922E
:1007F0006300FF91EF91BF91AF919F918F917F9196
:100800006F915F914F913F912F910F900FBE0F907D
:080810001F901895F894FFCF2A
:00000001FF
